{
  "_format": "hh-sol-artifact-1",
  "contractName": "Cert",
  "sourceName": "contracts/CertiContract.sol",
  "abi": [
    {
      "inputs": [],
      "stateMutability": "nonpayable",
      "type": "constructor"
    },
    {
      "inputs": [
        {
          "internalType": "uint256",
          "name": "",
          "type": "uint256"
        }
      ],
      "name": "Certificate",
      "outputs": [
        {
          "internalType": "string",
          "name": "name",
          "type": "string"
        },
        {
          "internalType": "string",
          "name": "course",
          "type": "string"
        },
        {
          "internalType": "string",
          "name": "grade",
          "type": "string"
        },
        {
          "internalType": "string",
          "name": "date",
          "type": "string"
        }
      ],
      "stateMutability": "view",
      "type": "function"
    },
    {
      "inputs": [
        {
          "internalType": "uint256",
          "name": "_id",
          "type": "uint256"
        }
      ],
      "name": "getCert",
      "outputs": [
        {
          "internalType": "uint256",
          "name": "",
          "type": "uint256"
        },
        {
          "internalType": "string",
          "name": "",
          "type": "string"
        },
        {
          "internalType": "string",
          "name": "",
          "type": "string"
        },
        {
          "internalType": "string",
          "name": "",
          "type": "string"
        },
        {
          "internalType": "string",
          "name": "",
          "type": "string"
        }
      ],
      "stateMutability": "view",
      "type": "function"
    },
    {
      "inputs": [
        {
          "internalType": "uint256",
          "name": "_id",
          "type": "uint256"
        },
        {
          "internalType": "string",
          "name": "_name",
          "type": "string"
        },
        {
          "internalType": "string",
          "name": "_course",
          "type": "string"
        },
        {
          "internalType": "string",
          "name": "_grade",
          "type": "string"
        },
        {
          "internalType": "string",
          "name": "_date",
          "type": "string"
        }
      ],
      "name": "issue",
      "outputs": [],
      "stateMutability": "nonpayable",
      "type": "function"
    }
  ],
  "bytecode": "0x6080604052348015600f57600080fd5b50336000806101000a81548173ffffffffffffffffffffffffffffffffffffffff021916908373ffffffffffffffffffffffffffffffffffffffff160217905550610e5e8061005f6000396000f3fe608060405234801561001057600080fd5b50600436106100415760003560e01c80634e9e195b14610046578063b449e71614610079578063d1e7be26146100ad575b600080fd5b610060600480360381019061005b9190610722565b6100c9565b60405161007094939291906107df565b60405180910390f35b610093600480360381019061008e9190610722565b610319565b6040516100a495949392919061084f565b60405180910390f35b6100c760048036038101906100c291906109f3565b6105b4565b005b60016020528060005260406000206000915090508060000180546100ec90610b0d565b80601f016020809104026020016040519081016040528092919081815260200182805461011890610b0d565b80156101655780601f1061013a57610100808354040283529160200191610165565b820191906000526020600020905b81548152906001019060200180831161014857829003601f168201915b50505050509080600101805461017a90610b0d565b80601f01602080910402602001604051908101604052809291908181526020018280546101a690610b0d565b80156101f35780601f106101c8576101008083540402835291602001916101f3565b820191906000526020600020905b8154815290600101906020018083116101d657829003601f168201915b50505050509080600201805461020890610b0d565b80601f016020809104026020016040519081016040528092919081815260200182805461023490610b0d565b80156102815780601f1061025657610100808354040283529160200191610281565b820191906000526020600020905b81548152906001019060200180831161026457829003601f168201915b50505050509080600301805461029690610b0d565b80601f01602080910402602001604051908101604052809291908181526020018280546102c290610b0d565b801561030f5780601f106102e45761010080835404028352916020019161030f565b820191906000526020600020905b8154815290600101906020018083116102f257829003601f168201915b5050505050905084565b600060608060608060006001600088815260200190815260200160002060405180608001604052908160008201805461035190610b0d565b80601f016020809104026020016040519081016040528092919081815260200182805461037d90610b0d565b80156103ca5780601f1061039f576101008083540402835291602001916103ca565b820191906000526020600020905b8154815290600101906020018083116103ad57829003601f168201915b505050505081526020016001820180546103e390610b0d565b80601f016020809104026020016040519081016040528092919081815260200182805461040f90610b0d565b801561045c5780601f106104315761010080835404028352916020019161045c565b820191906000526020600020905b81548152906001019060200180831161043f57829003601f168201915b5050505050815260200160028201805461047590610b0d565b80601f01602080910402602001604051908101604052809291908181526020018280546104a190610b0d565b80156104ee5780601f106104c3576101008083540402835291602001916104ee565b820191906000526020600020905b8154815290600101906020018083116104d157829003601f168201915b5050505050815260200160038201805461050790610b0d565b80601f016020809104026020016040519081016040528092919081815260200182805461053390610b0d565b80156105805780601f1061055557610100808354040283529160200191610580565b820191906000526020600020905b81548152906001019060200180831161056357829003601f168201915b5050505050815250509050868160000151826020015183604001518460600151955095509550955095505091939590929450565b60008054906101000a900473ffffffffffffffffffffffffffffffffffffffff1673ffffffffffffffffffffffffffffffffffffffff163373ffffffffffffffffffffffffffffffffffffffff1614610642576040517f08c379a000000000000000000000000000000000000000000000000000000000815260040161063990610b8a565b60405180910390fd5b60405180608001604052808581526020018481526020018381526020018281525060016000878152602001908152602001600020600082015181600001908161068b9190610d56565b5060208201518160010190816106a19190610d56565b5060408201518160020190816106b79190610d56565b5060608201518160030190816106cd9190610d56565b509050505050505050565b6000604051905090565b600080fd5b600080fd5b6000819050919050565b6106ff816106ec565b811461070a57600080fd5b50565b60008135905061071c816106f6565b92915050565b600060208284031215610738576107376106e2565b5b60006107468482850161070d565b91505092915050565b600081519050919050565b600082825260208201905092915050565b60005b8381101561078957808201518184015260208101905061076e565b60008484015250505050565b6000601f19601f8301169050919050565b60006107b18261074f565b6107bb818561075a565b93506107cb81856020860161076b565b6107d481610795565b840191505092915050565b600060808201905081810360008301526107f981876107a6565b9050818103602083015261080d81866107a6565b9050818103604083015261082181856107a6565b9050818103606083015261083581846107a6565b905095945050505050565b610849816106ec565b82525050565b600060a0820190506108646000830188610840565b818103602083015261087681876107a6565b9050818103604083015261088a81866107a6565b9050818103606083015261089e81856107a6565b905081810360808301526108b281846107a6565b90509695505050505050565b600080fd5b600080fd5b7f4e487b7100000000000000000000000000000000000000000000000000000000600052604160045260246000fd5b61090082610795565b810181811067ffffffffffffffff8211171561091f5761091e6108c8565b5b80604052505050565b60006109326106d8565b905061093e82826108f7565b919050565b600067ffffffffffffffff82111561095e5761095d6108c8565b5b61096782610795565b9050602081019050919050565b82818337600083830152505050565b600061099661099184610943565b610928565b9050828152602081018484840111156109b2576109b16108c3565b5b6109bd848285610974565b509392505050565b600082601f8301126109da576109d96108be565b5b81356109ea848260208601610983565b91505092915050565b600080600080600060a08688031215610a0f57610a0e6106e2565b5b6000610a1d8882890161070d565b955050602086013567ffffffffffffffff811115610a3e57610a3d6106e7565b5b610a4a888289016109c5565b945050604086013567ffffffffffffffff811115610a6b57610a6a6106e7565b5b610a77888289016109c5565b935050606086013567ffffffffffffffff811115610a9857610a976106e7565b5b610aa4888289016109c5565b925050608086013567ffffffffffffffff811115610ac557610ac46106e7565b5b610ad1888289016109c5565b9150509295509295909350565b7f4e487b7100000000000000000000000000000000000000000000000000000000600052602260045260246000fd5b60006002820490506001821680610b2557607f821691505b602082108103610b3857610b37610ade565b5b50919050565b7f556e617574686f72697365642041636365737300000000000000000000000000600082015250565b6000610b7460138361075a565b9150610b7f82610b3e565b602082019050919050565b60006020820190508181036000830152610ba381610b67565b9050919050565b60008190508160005260206000209050919050565b60006020601f8301049050919050565b600082821b905092915050565b600060088302610c0c7fffffffffffffffffffffffffffffffffffffffffffffffffffffffffffffffff82610bcf565b610c168683610bcf565b95508019841693508086168417925050509392505050565b6000819050919050565b6000610c53610c4e610c49846106ec565b610c2e565b6106ec565b9050919050565b6000819050919050565b610c6d83610c38565b610c81610c7982610c5a565b848454610bdc565b825550505050565b600090565b610c96610c89565b610ca1818484610c64565b505050565b5b81811015610cc557610cba600082610c8e565b600181019050610ca7565b5050565b601f821115610d0a57610cdb81610baa565b610ce484610bbf565b81016020851015610cf3578190505b610d07610cff85610bbf565b830182610ca6565b50505b505050565b600082821c905092915050565b6000610d2d60001984600802610d0f565b1980831691505092915050565b6000610d468383610d1c565b9150826002028217905092915050565b610d5f8261074f565b67ffffffffffffffff811115610d7857610d776108c8565b5b610d828254610b0d565b610d8d828285610cc9565b600060209050601f831160018114610dc05760008415610dae578287015190505b610db88582610d3a565b865550610e20565b601f198416610dce86610baa565b60005b82811015610df657848901518255600182019150602085019450602081019050610dd1565b86831015610e135784890151610e0f601f891682610d1c565b8355505b6001600288020188555050505b50505050505056fea26469706673582212208f0f5484e2606cd063b932bdf7bfaef9a6fd42528c59b9479d529beb7542f60b64736f6c634300081e0033",
  "linkReferences": {},
  "deployedLinkReferences": {}
}