{
  "contracts/CertiContract.sol": {
    "Cert": {
      "abi": [
        {
          "inputs": [],
          "stateMutability": "nonpayable",
          "type": "constructor"
        },
        {
          "inputs": [
            {
              "internalType": "uint256",
              "name": "",
              "type": "uint256"
            }
          ],
          "name": "Certificate",
          "outputs": [
            {
              "internalType": "string",
              "name": "name",
              "type": "string"
            },
            {
              "internalType": "string",
              "name": "course",
              "type": "string"
            },
            {
              "internalType": "string",
              "name": "grade",
              "type": "string"
            },
            {
              "internalType": "string",
              "name": "date",
              "type": "string"
            }
          ],
          "stateMutability": "view",
          "type": "function"
        },
        {
          "inputs": [
            {
              "internalType": "uint256",
              "name": "_id",
              "type": "uint256"
            }
          ],
          "name": "getCert",
          "outputs": [
            {
              "internalType": "uint256",
              "name": "",
              "type": "uint256"
            },
            {
              "internalType": "string",
              "name": "",
              "type": "string"
            },
            {
              "internalType": "string",
              "name": "",
              "type": "string"
            },
            {
              "internalType": "string",
              "name": "",
              "type": "string"
            },
            {
              "internalType": "string",
              "name": "",
              "type": "string"
            }
          ],
          "stateMutability": "view",
          "type": "function"
        },
        {
          "inputs": [
            {
              "internalType": "uint256",
              "name": "_id",
              "type": "uint256"
            },
            {
              "internalType": "string",
              "name": "_name",
              "type": "string"
            },
            {
              "internalType": "string",
              "name": "_course",
              "type": "string"
            },
            {
              "internalType": "string",
              "name": "_grade",
              "type": "string"
            },
            {
              "internalType": "string",
              "name": "_date",
              "type": "string"
            }
          ],
          "name": "issue",
          "outputs": [],
          "stateMutability": "nonpayable",
          "type": "function"
        }
      ],
      "evm": {
        "bytecode": {
          "linkReferences": {},
          "object": "6080604052348015600f57600080fd5b50336000806101000a81548173ffffffffffffffffffffffffffffffffffffffff021916908373ffffffffffffffffffffffffffffffffffffffff160217905550610e5e8061005f6000396000f3fe608060405234801561001057600080fd5b50600436106100415760003560e01c80634e9e195b14610046578063b449e71614610079578063d1e7be26146100ad575b600080fd5b610060600480360381019061005b9190610722565b6100c9565b60405161007094939291906107df565b60405180910390f35b610093600480360381019061008e9190610722565b610319565b6040516100a495949392919061084f565b60405180910390f35b6100c760048036038101906100c291906109f3565b6105b4565b005b60016020528060005260406000206000915090508060000180546100ec90610b0d565b80601f016020809104026020016040519081016040528092919081815260200182805461011890610b0d565b80156101655780601f1061013a57610100808354040283529160200191610165565b820191906000526020600020905b81548152906001019060200180831161014857829003601f168201915b50505050509080600101805461017a90610b0d565b80601f01602080910402602001604051908101604052809291908181526020018280546101a690610b0d565b80156101f35780601f106101c8576101008083540402835291602001916101f3565b820191906000526020600020905b8154815290600101906020018083116101d657829003601f168201915b50505050509080600201805461020890610b0d565b80601f016020809104026020016040519081016040528092919081815260200182805461023490610b0d565b80156102815780601f1061025657610100808354040283529160200191610281565b820191906000526020600020905b81548152906001019060200180831161026457829003601f168201915b50505050509080600301805461029690610b0d565b80601f01602080910402602001604051908101604052809291908181526020018280546102c290610b0d565b801561030f5780601f106102e45761010080835404028352916020019161030f565b820191906000526020600020905b8154815290600101906020018083116102f257829003601f168201915b5050505050905084565b600060608060608060006001600088815260200190815260200160002060405180608001604052908160008201805461035190610b0d565b80601f016020809104026020016040519081016040528092919081815260200182805461037d90610b0d565b80156103ca5780601f1061039f576101008083540402835291602001916103ca565b820191906000526020600020905b8154815290600101906020018083116103ad57829003601f168201915b505050505081526020016001820180546103e390610b0d565b80601f016020809104026020016040519081016040528092919081815260200182805461040f90610b0d565b801561045c5780601f106104315761010080835404028352916020019161045c565b820191906000526020600020905b81548152906001019060200180831161043f57829003601f168201915b5050505050815260200160028201805461047590610b0d565b80601f01602080910402602001604051908101604052809291908181526020018280546104a190610b0d565b80156104ee5780601f106104c3576101008083540402835291602001916104ee565b820191906000526020600020905b8154815290600101906020018083116104d157829003601f168201915b5050505050815260200160038201805461050790610b0d565b80601f016020809104026020016040519081016040528092919081815260200182805461053390610b0d565b80156105805780601f1061055557610100808354040283529160200191610580565b820191906000526020600020905b81548152906001019060200180831161056357829003601f168201915b5050505050815250509050868160000151826020015183604001518460600151955095509550955095505091939590929450565b60008054906101000a900473ffffffffffffffffffffffffffffffffffffffff1673ffffffffffffffffffffffffffffffffffffffff163373ffffffffffffffffffffffffffffffffffffffff1614610642576040517f08c379a000000000000000000000000000000000000000000000000000000000815260040161063990610b8a565b60405180910390fd5b60405180608001604052808581526020018481526020018381526020018281525060016000878152602001908152602001600020600082015181600001908161068b9190610d56565b5060208201518160010190816106a19190610d56565b5060408201518160020190816106b79190610d56565b5060608201518160030190816106cd9190610d56565b509050505050505050565b6000604051905090565b600080fd5b600080fd5b6000819050919050565b6106ff816106ec565b811461070a57600080fd5b50565b60008135905061071c816106f6565b92915050565b600060208284031215610738576107376106e2565b5b60006107468482850161070d565b91505092915050565b600081519050919050565b600082825260208201905092915050565b60005b8381101561078957808201518184015260208101905061076e565b60008484015250505050565b6000601f19601f8301169050919050565b60006107b18261074f565b6107bb818561075a565b93506107cb81856020860161076b565b6107d481610795565b840191505092915050565b600060808201905081810360008301526107f981876107a6565b9050818103602083015261080d81866107a6565b9050818103604083015261082181856107a6565b9050818103606083015261083581846107a6565b905095945050505050565b610849816106ec565b82525050565b600060a0820190506108646000830188610840565b818103602083015261087681876107a6565b9050818103604083015261088a81866107a6565b9050818103606083015261089e81856107a6565b905081810360808301526108b281846107a6565b90509695505050505050565b600080fd5b600080fd5b7f4e487b7100000000000000000000000000000000000000000000000000000000600052604160045260246000fd5b61090082610795565b810181811067ffffffffffffffff8211171561091f5761091e6108c8565b5b80604052505050565b60006109326106d8565b905061093e82826108f7565b919050565b600067ffffffffffffffff82111561095e5761095d6108c8565b5b61096782610795565b9050602081019050919050565b82818337600083830152505050565b600061099661099184610943565b610928565b9050828152602081018484840111156109b2576109b16108c3565b5b6109bd848285610974565b509392505050565b600082601f8301126109da576109d96108be565b5b81356109ea848260208601610983565b91505092915050565b600080600080600060a08688031215610a0f57610a0e6106e2565b5b6000610a1d8882890161070d565b955050602086013567ffffffffffffffff811115610a3e57610a3d6106e7565b5b610a4a888289016109c5565b945050604086013567ffffffffffffffff811115610a6b57610a6a6106e7565b5b610a77888289016109c5565b935050606086013567ffffffffffffffff811115610a9857610a976106e7565b5b610aa4888289016109c5565b925050608086013567ffffffffffffffff811115610ac557610ac46106e7565b5b610ad1888289016109c5565b9150509295509295909350565b7f4e487b7100000000000000000000000000000000000000000000000000000000600052602260045260246000fd5b60006002820490506001821680610b2557607f821691505b602082108103610b3857610b37610ade565b5b50919050565b7f556e617574686f72697365642041636365737300000000000000000000000000600082015250565b6000610b7460138361075a565b9150610b7f82610b3e565b602082019050919050565b60006020820190508181036000830152610ba381610b67565b9050919050565b60008190508160005260206000209050919050565b60006020601f8301049050919050565b600082821b905092915050565b600060088302610c0c7fffffffffffffffffffffffffffffffffffffffffffffffffffffffffffffffff82610bcf565b610c168683610bcf565b95508019841693508086168417925050509392505050565b6000819050919050565b6000610c53610c4e610c49846106ec565b610c2e565b6106ec565b9050919050565b6000819050919050565b610c6d83610c38565b610c81610c7982610c5a565b848454610bdc565b825550505050565b600090565b610c96610c89565b610ca1818484610c64565b505050565b5b81811015610cc557610cba600082610c8e565b600181019050610ca7565b5050565b601f821115610d0a57610cdb81610baa565b610ce484610bbf565b81016020851015610cf3578190505b610d07610cff85610bbf565b830182610ca6565b50505b505050565b600082821c905092915050565b6000610d2d60001984600802610d0f565b1980831691505092915050565b6000610d468383610d1c565b9150826002028217905092915050565b610d5f8261074f565b67ffffffffffffffff811115610d7857610d776108c8565b5b610d828254610b0d565b610d8d828285610cc9565b600060209050601f831160018114610dc05760008415610dae578287015190505b610db88582610d3a565b865550610e20565b601f198416610dce86610baa565b60005b82811015610df657848901518255600182019150602085019450602081019050610dd1565b86831015610e135784890151610e0f601f891682610d1c565b8355505b6001600288020188555050505b50505050505056fea26469706673582212208f0f5484e2606cd063b932bdf7bfaef9a6fd42528c59b9479d529beb7542f60b64736f6c634300081e0033",
          "opcodes": "PUSH1 0x80 PUSH1 0x40 MSTORE CALLVALUE DUP1 ISZERO PUSH1 0xF JUMPI PUSH1 0x0 DUP1 REVERT JUMPDEST POP CALLER PUSH1 0x0 DUP1 PUSH2 0x100 EXP DUP2 SLOAD DUP2 PUSH20 0xFFFFFFFFFFFFFFFFFFFFFFFFFFFFFFFFFFFFFFFF MUL NOT AND SWAP1 DUP4 PUSH20 0xFFFFFFFFFFFFFFFFFFFFFFFFFFFFFFFFFFFFFFFF AND MUL OR SWAP1 SSTORE POP PUSH2 0xE5E DUP1 PUSH2 0x5F PUSH1 0x0 CODECOPY PUSH1 0x0 RETURN INVALID PUSH1 0x80 PUSH1 0x40 MSTORE CALLVALUE DUP1 ISZERO PUSH2 0x10 JUMPI PUSH1 0x0 DUP1 REVERT JUMPDEST POP PUSH1 0x4 CALLDATASIZE LT PUSH2 0x41 JUMPI PUSH1 0x0 CALLDATALOAD PUSH1 0xE0 SHR DUP1 PUSH4 0x4E9E195B EQ PUSH2 0x46 JUMPI DUP1 PUSH4 0xB449E716 EQ PUSH2 0x79 JUMPI DUP1 PUSH4 0xD1E7BE26 EQ PUSH2 0xAD JUMPI JUMPDEST PUSH1 0x0 DUP1 REVERT JUMPDEST PUSH2 0x60 PUSH1 0x4 DUP1 CALLDATASIZE SUB DUP2 ADD SWAP1 PUSH2 0x5B SWAP2 SWAP1 PUSH2 0x722 JUMP JUMPDEST PUSH2 0xC9 JUMP JUMPDEST PUSH1 0x40 MLOAD PUSH2 0x70 SWAP5 SWAP4 SWAP3 SWAP2 SWAP1 PUSH2 0x7DF JUMP JUMPDEST PUSH1 0x40 MLOAD DUP1 SWAP2 SUB SWAP1 RETURN JUMPDEST PUSH2 0x93 PUSH1 0x4 DUP1 CALLDATASIZE SUB DUP2 ADD SWAP1 PUSH2 0x8E SWAP2 SWAP1 PUSH2 0x722 JUMP JUMPDEST PUSH2 0x319 JUMP JUMPDEST PUSH1 0x40 MLOAD PUSH2 0xA4 SWAP6 SWAP5 SWAP4 SWAP3 SWAP2 SWAP1 PUSH2 0x84F JUMP JUMPDEST PUSH1 0x40 MLOAD DUP1 SWAP2 SUB SWAP1 RETURN JUMPDEST PUSH2 0xC7 PUSH1 0x4 DUP1 CALLDATASIZE SUB DUP2 ADD SWAP1 PUSH2 0xC2 SWAP2 SWAP1 PUSH2 0x9F3 JUMP JUMPDEST PUSH2 0x5B4 JUMP JUMPDEST STOP JUMPDEST PUSH1 0x1 PUSH1 0x20 MSTORE DUP1 PUSH1 0x0 MSTORE PUSH1 0x40 PUSH1 0x0 KECCAK256 PUSH1 0x0 SWAP2 POP SWAP1 POP DUP1 PUSH1 0x0 ADD DUP1 SLOAD PUSH2 0xEC SWAP1 PUSH2 0xB0D JUMP JUMPDEST DUP1 PUSH1 0x1F ADD PUSH1 0x20 DUP1 SWAP2 DIV MUL PUSH1 0x20 ADD PUSH1 0x40 MLOAD SWAP1 DUP2 ADD PUSH1 0x40 MSTORE DUP1 SWAP3 SWAP2 SWAP1 DUP2 DUP2 MSTORE PUSH1 0x20 ADD DUP3 DUP1 SLOAD PUSH2 0x118 SWAP1 PUSH2 0xB0D JUMP JUMPDEST DUP1 ISZERO PUSH2 0x165 JUMPI DUP1 PUSH1 0x1F LT PUSH2 0x13A JUMPI PUSH2 0x100 DUP1 DUP4 SLOAD DIV MUL DUP4 MSTORE SWAP2 PUSH1 0x20 ADD SWAP2 PUSH2 0x165 JUMP JUMPDEST DUP3 ADD SWAP2 SWAP1 PUSH1 0x0 MSTORE PUSH1 0x20 PUSH1 0x0 KECCAK256 SWAP1 JUMPDEST DUP2 SLOAD DUP2 MSTORE SWAP1 PUSH1 0x1 ADD SWAP1 PUSH1 0x20 ADD DUP1 DUP4 GT PUSH2 0x148 JUMPI DUP3 SWAP1 SUB PUSH1 0x1F AND DUP3 ADD SWAP2 JUMPDEST POP POP POP POP POP SWAP1 DUP1 PUSH1 0x1 ADD DUP1 SLOAD PUSH2 0x17A SWAP1 PUSH2 0xB0D JUMP JUMPDEST DUP1 PUSH1 0x1F ADD PUSH1 0x20 DUP1 SWAP2 DIV MUL PUSH1 0x20 ADD PUSH1 0x40 MLOAD SWAP1 DUP2 ADD PUSH1 0x40 MSTORE DUP1 SWAP3 SWAP2 SWAP1 DUP2 DUP2 MSTORE PUSH1 0x20 ADD DUP3 DUP1 SLOAD PUSH2 0x1A6 SWAP1 PUSH2 0xB0D JUMP JUMPDEST DUP1 ISZERO PUSH2 0x1F3 JUMPI DUP1 PUSH1 0x1F LT PUSH2 0x1C8 JUMPI PUSH2 0x100 DUP1 DUP4 SLOAD DIV MUL DUP4 MSTORE SWAP2 PUSH1 0x20 ADD SWAP2 PUSH2 0x1F3 JUMP JUMPDEST DUP3 ADD SWAP2 SWAP1 PUSH1 0x0 MSTORE PUSH1 0x20 PUSH1 0x0 KECCAK256 SWAP1 JUMPDEST DUP2 SLOAD DUP2 MSTORE SWAP1 PUSH1 0x1 ADD SWAP1 PUSH1 0x20 ADD DUP1 DUP4 GT PUSH2 0x1D6 JUMPI DUP3 SWAP1 SUB PUSH1 0x1F AND DUP3 ADD SWAP2 JUMPDEST POP POP POP POP POP SWAP1 DUP1 PUSH1 0x2 ADD DUP1 SLOAD PUSH2 0x208 SWAP1 PUSH2 0xB0D JUMP JUMPDEST DUP1 PUSH1 0x1F ADD PUSH1 0x20 DUP1 SWAP2 DIV MUL PUSH1 0x20 ADD PUSH1 0x40 MLOAD SWAP1 DUP2 ADD PUSH1 0x40 MSTORE DUP1 SWAP3 SWAP2 SWAP1 DUP2 DUP2 MSTORE PUSH1 0x20 ADD DUP3 DUP1 SLOAD PUSH2 0x234 SWAP1 PUSH2 0xB0D JUMP JUMPDEST DUP1 ISZERO PUSH2 0x281 JUMPI DUP1 PUSH1 0x1F LT PUSH2 0x256 JUMPI PUSH2 0x100 DUP1 DUP4 SLOAD DIV MUL DUP4 MSTORE SWAP2 PUSH1 0x20 ADD SWAP2 PUSH2 0x281 JUMP JUMPDEST DUP3 ADD SWAP2 SWAP1 PUSH1 0x0 MSTORE PUSH1 0x20 PUSH1 0x0 KECCAK256 SWAP1 JUMPDEST DUP2 SLOAD DUP2 MSTORE SWAP1 PUSH1 0x1 ADD SWAP1 PUSH1 0x20 ADD DUP1 DUP4 GT PUSH2 0x264 JUMPI DUP3 SWAP1 SUB PUSH1 0x1F AND DUP3 ADD SWAP2 JUMPDEST POP POP POP POP POP SWAP1 DUP1 PUSH1 0x3 ADD DUP1 SLOAD PUSH2 0x296 SWAP1 PUSH2 0xB0D JUMP JUMPDEST DUP1 PUSH1 0x1F ADD PUSH1 0x20 DUP1 SWAP2 DIV MUL PUSH1 0x20 ADD PUSH1 0x40 MLOAD SWAP1 DUP2 ADD PUSH1 0x40 MSTORE DUP1 SWAP3 SWAP2 SWAP1 DUP2 DUP2 MSTORE PUSH1 0x20 ADD DUP3 DUP1 SLOAD PUSH2 0x2C2 SWAP1 PUSH2 0xB0D JUMP JUMPDEST DUP1 ISZERO PUSH2 0x30F JUMPI DUP1 PUSH1 0x1F LT PUSH2 0x2E4 JUMPI PUSH2 0x100 DUP1 DUP4 SLOAD DIV MUL DUP4 MSTORE SWAP2 PUSH1 0x20 ADD SWAP2 PUSH2 0x30F JUMP JUMPDEST DUP3 ADD SWAP2 SWAP1 PUSH1 0x0 MSTORE PUSH1 0x20 PUSH1 0x0 KECCAK256 SWAP1 JUMPDEST DUP2 SLOAD DUP2 MSTORE SWAP1 PUSH1 0x1 ADD SWAP1 PUSH1 0x20 ADD DUP1 DUP4 GT PUSH2 0x2F2 JUMPI DUP3 SWAP1 SUB PUSH1 0x1F AND DUP3 ADD SWAP2 JUMPDEST POP POP POP POP POP SWAP1 POP DUP5 JUMP JUMPDEST PUSH1 0x0 PUSH1 0x60 DUP1 PUSH1 0x60 DUP1 PUSH1 0x0 PUSH1 0x1 PUSH1 0x0 DUP9 DUP2 MSTORE PUSH1 0x20 ADD SWAP1 DUP2 MSTORE PUSH1 0x20 ADD PUSH1 0x0 KECCAK256 PUSH1 0x40 MLOAD DUP1 PUSH1 0x80 ADD PUSH1 0x40 MSTORE SWAP1 DUP2 PUSH1 0x0 DUP3 ADD DUP1 SLOAD PUSH2 0x351 SWAP1 PUSH2 0xB0D JUMP JUMPDEST DUP1 PUSH1 0x1F ADD PUSH1 0x20 DUP1 SWAP2 DIV MUL PUSH1 0x20 ADD PUSH1 0x40 MLOAD SWAP1 DUP2 ADD PUSH1 0x40 MSTORE DUP1 SWAP3 SWAP2 SWAP1 DUP2 DUP2 MSTORE PUSH1 0x20 ADD DUP3 DUP1 SLOAD PUSH2 0x37D SWAP1 PUSH2 0xB0D JUMP JUMPDEST DUP1 ISZERO PUSH2 0x3CA JUMPI DUP1 PUSH1 0x1F LT PUSH2 0x39F JUMPI PUSH2 0x100 DUP1 DUP4 SLOAD DIV MUL DUP4 MSTORE SWAP2 PUSH1 0x20 ADD SWAP2 PUSH2 0x3CA JUMP JUMPDEST DUP3 ADD SWAP2 SWAP1 PUSH1 0x0 MSTORE PUSH1 0x20 PUSH1 0x0 KECCAK256 SWAP1 JUMPDEST DUP2 SLOAD DUP2 MSTORE SWAP1 PUSH1 0x1 ADD SWAP1 PUSH1 0x20 ADD DUP1 DUP4 GT PUSH2 0x3AD JUMPI DUP3 SWAP1 SUB PUSH1 0x1F AND DUP3 ADD SWAP2 JUMPDEST POP POP POP POP POP DUP2 MSTORE PUSH1 0x20 ADD PUSH1 0x1 DUP3 ADD DUP1 SLOAD PUSH2 0x3E3 SWAP1 PUSH2 0xB0D JUMP JUMPDEST DUP1 PUSH1 0x1F ADD PUSH1 0x20 DUP1 SWAP2 DIV MUL PUSH1 0x20 ADD PUSH1 0x40 MLOAD SWAP1 DUP2 ADD PUSH1 0x40 MSTORE DUP1 SWAP3 SWAP2 SWAP1 DUP2 DUP2 MSTORE PUSH1 0x20 ADD DUP3 DUP1 SLOAD PUSH2 0x40F SWAP1 PUSH2 0xB0D JUMP JUMPDEST DUP1 ISZERO PUSH2 0x45C JUMPI DUP1 PUSH1 0x1F LT PUSH2 0x431 JUMPI PUSH2 0x100 DUP1 DUP4 SLOAD DIV MUL DUP4 MSTORE SWAP2 PUSH1 0x20 ADD SWAP2 PUSH2 0x45C JUMP JUMPDEST DUP3 ADD SWAP2 SWAP1 PUSH1 0x0 MSTORE PUSH1 0x20 PUSH1 0x0 KECCAK256 SWAP1 JUMPDEST DUP2 SLOAD DUP2 MSTORE SWAP1 PUSH1 0x1 ADD SWAP1 PUSH1 0x20 ADD DUP1 DUP4 GT PUSH2 0x43F JUMPI DUP3 SWAP1 SUB PUSH1 0x1F AND DUP3 ADD SWAP2 JUMPDEST POP POP POP POP POP DUP2 MSTORE PUSH1 0x20 ADD PUSH1 0x2 DUP3 ADD DUP1 SLOAD PUSH2 0x475 SWAP1 PUSH2 0xB0D JUMP JUMPDEST DUP1 PUSH1 0x1F ADD PUSH1 0x20 DUP1 SWAP2 DIV MUL PUSH1 0x20 ADD PUSH1 0x40 MLOAD SWAP1 DUP2 ADD PUSH1 0x40 MSTORE DUP1 SWAP3 SWAP2 SWAP1 DUP2 DUP2 MSTORE PUSH1 0x20 ADD DUP3 DUP1 SLOAD PUSH2 0x4A1 SWAP1 PUSH2 0xB0D JUMP JUMPDEST DUP1 ISZERO PUSH2 0x4EE JUMPI DUP1 PUSH1 0x1F LT PUSH2 0x4C3 JUMPI PUSH2 0x100 DUP1 DUP4 SLOAD DIV MUL DUP4 MSTORE SWAP2 PUSH1 0x20 ADD SWAP2 PUSH2 0x4EE JUMP JUMPDEST DUP3 ADD SWAP2 SWAP1 PUSH1 0x0 MSTORE PUSH1 0x20 PUSH1 0x0 KECCAK256 SWAP1 JUMPDEST DUP2 SLOAD DUP2 MSTORE SWAP1 PUSH1 0x1 ADD SWAP1 PUSH1 0x20 ADD DUP1 DUP4 GT PUSH2 0x4D1 JUMPI DUP3 SWAP1 SUB PUSH1 0x1F AND DUP3 ADD SWAP2 JUMPDEST POP POP POP POP POP DUP2 MSTORE PUSH1 0x20 ADD PUSH1 0x3 DUP3 ADD DUP1 SLOAD PUSH2 0x507 SWAP1 PUSH2 0xB0D JUMP JUMPDEST DUP1 PUSH1 0x1F ADD PUSH1 0x20 DUP1 SWAP2 DIV MUL PUSH1 0x20 ADD PUSH1 0x40 MLOAD SWAP1 DUP2 ADD PUSH1 0x40 MSTORE DUP1 SWAP3 SWAP2 SWAP1 DUP2 DUP2 MSTORE PUSH1 0x20 ADD DUP3 DUP1 SLOAD PUSH2 0x533 SWAP1 PUSH2 0xB0D JUMP JUMPDEST DUP1 ISZERO PUSH2 0x580 JUMPI DUP1 PUSH1 0x1F LT PUSH2 0x555 JUMPI PUSH2 0x100 DUP1 DUP4 SLOAD DIV MUL DUP4 MSTORE SWAP2 PUSH1 0x20 ADD SWAP2 PUSH2 0x580 JUMP JUMPDEST DUP3 ADD SWAP2 SWAP1 PUSH1 0x0 MSTORE PUSH1 0x20 PUSH1 0x0 KECCAK256 SWAP1 JUMPDEST DUP2 SLOAD DUP2 MSTORE SWAP1 PUSH1 0x1 ADD SWAP1 PUSH1 0x20 ADD DUP1 DUP4 GT PUSH2 0x563 JUMPI DUP3 SWAP1 SUB PUSH1 0x1F AND DUP3 ADD SWAP2 JUMPDEST POP POP POP POP POP DUP2 MSTORE POP POP SWAP1 POP DUP7 DUP2 PUSH1 0x0 ADD MLOAD DUP3 PUSH1 0x20 ADD MLOAD DUP4 PUSH1 0x40 ADD MLOAD DUP5 PUSH1 0x60 ADD MLOAD SWAP6 POP SWAP6 POP SWAP6 POP SWAP6 POP SWAP6 POP POP SWAP2 SWAP4 SWAP6 SWAP1 SWAP3 SWAP5 POP JUMP JUMPDEST PUSH1 0x0 DUP1 SLOAD SWAP1 PUSH2 0x100 EXP SWAP1 DIV PUSH20 0xFFFFFFFFFFFFFFFFFFFFFFFFFFFFFFFFFFFFFFFF AND PUSH20 0xFFFFFFFFFFFFFFFFFFFFFFFFFFFFFFFFFFFFFFFF AND CALLER PUSH20 0xFFFFFFFFFFFFFFFFFFFFFFFFFFFFFFFFFFFFFFFF AND EQ PUSH2 0x642 JUMPI PUSH1 0x40 MLOAD PUSH32 0x8C379A000000000000000000000000000000000000000000000000000000000 DUP2 MSTORE PUSH1 0x4 ADD PUSH2 0x639 SWAP1 PUSH2 0xB8A JUMP JUMPDEST PUSH1 0x40 MLOAD DUP1 SWAP2 SUB SWAP1 REVERT JUMPDEST PUSH1 0x40 MLOAD DUP1 PUSH1 0x80 ADD PUSH1 0x40 MSTORE DUP1 DUP6 DUP2 MSTORE PUSH1 0x20 ADD DUP5 DUP2 MSTORE PUSH1 0x20 ADD DUP4 DUP2 MSTORE PUSH1 0x20 ADD DUP3 DUP2 MSTORE POP PUSH1 0x1 PUSH1 0x0 DUP8 DUP2 MSTORE PUSH1 0x20 ADD SWAP1 DUP2 MSTORE PUSH1 0x20 ADD PUSH1 0x0 KECCAK256 PUSH1 0x0 DUP3 ADD MLOAD DUP2 PUSH1 0x0 ADD SWAP1 DUP2 PUSH2 0x68B SWAP2 SWAP1 PUSH2 0xD56 JUMP JUMPDEST POP PUSH1 0x20 DUP3 ADD MLOAD DUP2 PUSH1 0x1 ADD SWAP1 DUP2 PUSH2 0x6A1 SWAP2 SWAP1 PUSH2 0xD56 JUMP JUMPDEST POP PUSH1 0x40 DUP3 ADD MLOAD DUP2 PUSH1 0x2 ADD SWAP1 DUP2 PUSH2 0x6B7 SWAP2 SWAP1 PUSH2 0xD56 JUMP JUMPDEST POP PUSH1 0x60 DUP3 ADD MLOAD DUP2 PUSH1 0x3 ADD SWAP1 DUP2 PUSH2 0x6CD SWAP2 SWAP1 PUSH2 0xD56 JUMP JUMPDEST POP SWAP1 POP POP POP POP POP POP POP JUMP JUMPDEST PUSH1 0x0 PUSH1 0x40 MLOAD SWAP1 POP SWAP1 JUMP JUMPDEST PUSH1 0x0 DUP1 REVERT JUMPDEST PUSH1 0x0 DUP1 REVERT JUMPDEST PUSH1 0x0 DUP2 SWAP1 POP SWAP2 SWAP1 POP JUMP JUMPDEST PUSH2 0x6FF DUP2 PUSH2 0x6EC JUMP JUMPDEST DUP2 EQ PUSH2 0x70A JUMPI PUSH1 0x0 DUP1 REVERT JUMPDEST POP JUMP JUMPDEST PUSH1 0x0 DUP2 CALLDATALOAD SWAP1 POP PUSH2 0x71C DUP2 PUSH2 0x6F6 JUMP JUMPDEST SWAP3 SWAP2 POP POP JUMP JUMPDEST PUSH1 0x0 PUSH1 0x20 DUP3 DUP5 SUB SLT ISZERO PUSH2 0x738 JUMPI PUSH2 0x737 PUSH2 0x6E2 JUMP JUMPDEST JUMPDEST PUSH1 0x0 PUSH2 0x746 DUP5 DUP3 DUP6 ADD PUSH2 0x70D JUMP JUMPDEST SWAP2 POP POP SWAP3 SWAP2 POP POP JUMP JUMPDEST PUSH1 0x0 DUP2 MLOAD SWAP1 POP SWAP2 SWAP1 POP JUMP JUMPDEST PUSH1 0x0 DUP3 DUP3 MSTORE PUSH1 0x20 DUP3 ADD SWAP1 POP SWAP3 SWAP2 POP POP JUMP JUMPDEST PUSH1 0x0 JUMPDEST DUP4 DUP2 LT ISZERO PUSH2 0x789 JUMPI DUP1 DUP3 ADD MLOAD DUP2 DUP5 ADD MSTORE PUSH1 0x20 DUP2 ADD SWAP1 POP PUSH2 0x76E JUMP JUMPDEST PUSH1 0x0 DUP5 DUP5 ADD MSTORE POP POP POP POP JUMP JUMPDEST PUSH1 0x0 PUSH1 0x1F NOT PUSH1 0x1F DUP4 ADD AND SWAP1 POP SWAP2 SWAP1 POP JUMP JUMPDEST PUSH1 0x0 PUSH2 0x7B1 DUP3 PUSH2 0x74F JUMP JUMPDEST PUSH2 0x7BB DUP2 DUP6 PUSH2 0x75A JUMP JUMPDEST SWAP4 POP PUSH2 0x7CB DUP2 DUP6 PUSH1 0x20 DUP7 ADD PUSH2 0x76B JUMP JUMPDEST PUSH2 0x7D4 DUP2 PUSH2 0x795 JUMP JUMPDEST DUP5 ADD SWAP2 POP POP SWAP3 SWAP2 POP POP JUMP JUMPDEST PUSH1 0x0 PUSH1 0x80 DUP3 ADD SWAP1 POP DUP2 DUP2 SUB PUSH1 0x0 DUP4 ADD MSTORE PUSH2 0x7F9 DUP2 DUP8 PUSH2 0x7A6 JUMP JUMPDEST SWAP1 POP DUP2 DUP2 SUB PUSH1 0x20 DUP4 ADD MSTORE PUSH2 0x80D DUP2 DUP7 PUSH2 0x7A6 JUMP JUMPDEST SWAP1 POP DUP2 DUP2 SUB PUSH1 0x40 DUP4 ADD MSTORE PUSH2 0x821 DUP2 DUP6 PUSH2 0x7A6 JUMP JUMPDEST SWAP1 POP DUP2 DUP2 SUB PUSH1 0x60 DUP4 ADD MSTORE PUSH2 0x835 DUP2 DUP5 PUSH2 0x7A6 JUMP JUMPDEST SWAP1 POP SWAP6 SWAP5 POP POP POP POP POP JUMP JUMPDEST PUSH2 0x849 DUP2 PUSH2 0x6EC JUMP JUMPDEST DUP3 MSTORE POP POP JUMP JUMPDEST PUSH1 0x0 PUSH1 0xA0 DUP3 ADD SWAP1 POP PUSH2 0x864 PUSH1 0x0 DUP4 ADD DUP9 PUSH2 0x840 JUMP JUMPDEST DUP2 DUP2 SUB PUSH1 0x20 DUP4 ADD MSTORE PUSH2 0x876 DUP2 DUP8 PUSH2 0x7A6 JUMP JUMPDEST SWAP1 POP DUP2 DUP2 SUB PUSH1 0x40 DUP4 ADD MSTORE PUSH2 0x88A DUP2 DUP7 PUSH2 0x7A6 JUMP JUMPDEST SWAP1 POP DUP2 DUP2 SUB PUSH1 0x60 DUP4 ADD MSTORE PUSH2 0x89E DUP2 DUP6 PUSH2 0x7A6 JUMP JUMPDEST SWAP1 POP DUP2 DUP2 SUB PUSH1 0x80 DUP4 ADD MSTORE PUSH2 0x8B2 DUP2 DUP5 PUSH2 0x7A6 JUMP JUMPDEST SWAP1 POP SWAP7 SWAP6 POP POP POP POP POP POP JUMP JUMPDEST PUSH1 0x0 DUP1 REVERT JUMPDEST PUSH1 0x0 DUP1 REVERT JUMPDEST PUSH32 0x4E487B7100000000000000000000000000000000000000000000000000000000 PUSH1 0x0 MSTORE PUSH1 0x41 PUSH1 0x4 MSTORE PUSH1 0x24 PUSH1 0x0 REVERT JUMPDEST PUSH2 0x900 DUP3 PUSH2 0x795 JUMP JUMPDEST DUP2 ADD DUP2 DUP2 LT PUSH8 0xFFFFFFFFFFFFFFFF DUP3 GT OR ISZERO PUSH2 0x91F JUMPI PUSH2 0x91E PUSH2 0x8C8 JUMP JUMPDEST JUMPDEST DUP1 PUSH1 0x40 MSTORE POP POP POP JUMP JUMPDEST PUSH1 0x0 PUSH2 0x932 PUSH2 0x6D8 JUMP JUMPDEST SWAP1 POP PUSH2 0x93E DUP3 DUP3 PUSH2 0x8F7 JUMP JUMPDEST SWAP2 SWAP1 POP JUMP JUMPDEST PUSH1 0x0 PUSH8 0xFFFFFFFFFFFFFFFF DUP3 GT ISZERO PUSH2 0x95E JUMPI PUSH2 0x95D PUSH2 0x8C8 JUMP JUMPDEST JUMPDEST PUSH2 0x967 DUP3 PUSH2 0x795 JUMP JUMPDEST SWAP1 POP PUSH1 0x20 DUP2 ADD SWAP1 POP SWAP2 SWAP1 POP JUMP JUMPDEST DUP3 DUP2 DUP4 CALLDATACOPY PUSH1 0x0 DUP4 DUP4 ADD MSTORE POP POP POP JUMP JUMPDEST PUSH1 0x0 PUSH2 0x996 PUSH2 0x991 DUP5 PUSH2 0x943 JUMP JUMPDEST PUSH2 0x928 JUMP JUMPDEST SWAP1 POP DUP3 DUP2 MSTORE PUSH1 0x20 DUP2 ADD DUP5 DUP5 DUP5 ADD GT ISZERO PUSH2 0x9B2 JUMPI PUSH2 0x9B1 PUSH2 0x8C3 JUMP JUMPDEST JUMPDEST PUSH2 0x9BD DUP5 DUP3 DUP6 PUSH2 0x974 JUMP JUMPDEST POP SWAP4 SWAP3 POP POP POP JUMP JUMPDEST PUSH1 0x0 DUP3 PUSH1 0x1F DUP4 ADD SLT PUSH2 0x9DA JUMPI PUSH2 0x9D9 PUSH2 0x8BE JUMP JUMPDEST JUMPDEST DUP2 CALLDATALOAD PUSH2 0x9EA DUP5 DUP3 PUSH1 0x20 DUP7 ADD PUSH2 0x983 JUMP JUMPDEST SWAP2 POP POP SWAP3 SWAP2 POP POP JUMP JUMPDEST PUSH1 0x0 DUP1 PUSH1 0x0 DUP1 PUSH1 0x0 PUSH1 0xA0 DUP7 DUP9 SUB SLT ISZERO PUSH2 0xA0F JUMPI PUSH2 0xA0E PUSH2 0x6E2 JUMP JUMPDEST JUMPDEST PUSH1 0x0 PUSH2 0xA1D DUP9 DUP3 DUP10 ADD PUSH2 0x70D JUMP JUMPDEST SWAP6 POP POP PUSH1 0x20 DUP7 ADD CALLDATALOAD PUSH8 0xFFFFFFFFFFFFFFFF DUP2 GT ISZERO PUSH2 0xA3E JUMPI PUSH2 0xA3D PUSH2 0x6E7 JUMP JUMPDEST JUMPDEST PUSH2 0xA4A DUP9 DUP3 DUP10 ADD PUSH2 0x9C5 JUMP JUMPDEST SWAP5 POP POP PUSH1 0x40 DUP7 ADD CALLDATALOAD PUSH8 0xFFFFFFFFFFFFFFFF DUP2 GT ISZERO PUSH2 0xA6B JUMPI PUSH2 0xA6A PUSH2 0x6E7 JUMP JUMPDEST JUMPDEST PUSH2 0xA77 DUP9 DUP3 DUP10 ADD PUSH2 0x9C5 JUMP JUMPDEST SWAP4 POP POP PUSH1 0x60 DUP7 ADD CALLDATALOAD PUSH8 0xFFFFFFFFFFFFFFFF DUP2 GT ISZERO PUSH2 0xA98 JUMPI PUSH2 0xA97 PUSH2 0x6E7 JUMP JUMPDEST JUMPDEST PUSH2 0xAA4 DUP9 DUP3 DUP10 ADD PUSH2 0x9C5 JUMP JUMPDEST SWAP3 POP POP PUSH1 0x80 DUP7 ADD CALLDATALOAD PUSH8 0xFFFFFFFFFFFFFFFF DUP2 GT ISZERO PUSH2 0xAC5 JUMPI PUSH2 0xAC4 PUSH2 0x6E7 JUMP JUMPDEST JUMPDEST PUSH2 0xAD1 DUP9 DUP3 DUP10 ADD PUSH2 0x9C5 JUMP JUMPDEST SWAP2 POP POP SWAP3 SWAP6 POP SWAP3 SWAP6 SWAP1 SWAP4 POP JUMP JUMPDEST PUSH32 0x4E487B7100000000000000000000000000000000000000000000000000000000 PUSH1 0x0 MSTORE PUSH1 0x22 PUSH1 0x4 MSTORE PUSH1 0x24 PUSH1 0x0 REVERT JUMPDEST PUSH1 0x0 PUSH1 0x2 DUP3 DIV SWAP1 POP PUSH1 0x1 DUP3 AND DUP1 PUSH2 0xB25 JUMPI PUSH1 0x7F DUP3 AND SWAP2 POP JUMPDEST PUSH1 0x20 DUP3 LT DUP2 SUB PUSH2 0xB38 JUMPI PUSH2 0xB37 PUSH2 0xADE JUMP JUMPDEST JUMPDEST POP SWAP2 SWAP1 POP JUMP JUMPDEST PUSH32 0x556E617574686F72697365642041636365737300000000000000000000000000 PUSH1 0x0 DUP3 ADD MSTORE POP JUMP JUMPDEST PUSH1 0x0 PUSH2 0xB74 PUSH1 0x13 DUP4 PUSH2 0x75A JUMP JUMPDEST SWAP2 POP PUSH2 0xB7F DUP3 PUSH2 0xB3E JUMP JUMPDEST PUSH1 0x20 DUP3 ADD SWAP1 POP SWAP2 SWAP1 POP JUMP JUMPDEST PUSH1 0x0 PUSH1 0x20 DUP3 ADD SWAP1 POP DUP2 DUP2 SUB PUSH1 0x0 DUP4 ADD MSTORE PUSH2 0xBA3 DUP2 PUSH2 0xB67 JUMP JUMPDEST SWAP1 POP SWAP2 SWAP1 POP JUMP JUMPDEST PUSH1 0x0 DUP2 SWAP1 POP DUP2 PUSH1 0x0 MSTORE PUSH1 0x20 PUSH1 0x0 KECCAK256 SWAP1 POP SWAP2 SWAP1 POP JUMP JUMPDEST PUSH1 0x0 PUSH1 0x20 PUSH1 0x1F DUP4 ADD DIV SWAP1 POP SWAP2 SWAP1 POP JUMP JUMPDEST PUSH1 0x0 DUP3 DUP3 SHL SWAP1 POP SWAP3 SWAP2 POP POP JUMP JUMPDEST PUSH1 0x0 PUSH1 0x8 DUP4 MUL PUSH2 0xC0C PUSH32 0xFFFFFFFFFFFFFFFFFFFFFFFFFFFFFFFFFFFFFFFFFFFFFFFFFFFFFFFFFFFFFFFF DUP3 PUSH2 0xBCF JUMP JUMPDEST PUSH2 0xC16 DUP7 DUP4 PUSH2 0xBCF JUMP JUMPDEST SWAP6 POP DUP1 NOT DUP5 AND SWAP4 POP DUP1 DUP7 AND DUP5 OR SWAP3 POP POP POP SWAP4 SWAP3 POP POP POP JUMP JUMPDEST PUSH1 0x0 DUP2 SWAP1 POP SWAP2 SWAP1 POP JUMP JUMPDEST PUSH1 0x0 PUSH2 0xC53 PUSH2 0xC4E PUSH2 0xC49 DUP5 PUSH2 0x6EC JUMP JUMPDEST PUSH2 0xC2E JUMP JUMPDEST PUSH2 0x6EC JUMP JUMPDEST SWAP1 POP SWAP2 SWAP1 POP JUMP JUMPDEST PUSH1 0x0 DUP2 SWAP1 POP SWAP2 SWAP1 POP JUMP JUMPDEST PUSH2 0xC6D DUP4 PUSH2 0xC38 JUMP JUMPDEST PUSH2 0xC81 PUSH2 0xC79 DUP3 PUSH2 0xC5A JUMP JUMPDEST DUP5 DUP5 SLOAD PUSH2 0xBDC JUMP JUMPDEST DUP3 SSTORE POP POP POP POP JUMP JUMPDEST PUSH1 0x0 SWAP1 JUMP JUMPDEST PUSH2 0xC96 PUSH2 0xC89 JUMP JUMPDEST PUSH2 0xCA1 DUP2 DUP5 DUP5 PUSH2 0xC64 JUMP JUMPDEST POP POP POP JUMP JUMPDEST JUMPDEST DUP2 DUP2 LT ISZERO PUSH2 0xCC5 JUMPI PUSH2 0xCBA PUSH1 0x0 DUP3 PUSH2 0xC8E JUMP JUMPDEST PUSH1 0x1 DUP2 ADD SWAP1 POP PUSH2 0xCA7 JUMP JUMPDEST POP POP JUMP JUMPDEST PUSH1 0x1F DUP3 GT ISZERO PUSH2 0xD0A JUMPI PUSH2 0xCDB DUP2 PUSH2 0xBAA JUMP JUMPDEST PUSH2 0xCE4 DUP5 PUSH2 0xBBF JUMP JUMPDEST DUP2 ADD PUSH1 0x20 DUP6 LT ISZERO PUSH2 0xCF3 JUMPI DUP2 SWAP1 POP JUMPDEST PUSH2 0xD07 PUSH2 0xCFF DUP6 PUSH2 0xBBF JUMP JUMPDEST DUP4 ADD DUP3 PUSH2 0xCA6 JUMP JUMPDEST POP POP JUMPDEST POP POP POP JUMP JUMPDEST PUSH1 0x0 DUP3 DUP3 SHR SWAP1 POP SWAP3 SWAP2 POP POP JUMP JUMPDEST PUSH1 0x0 PUSH2 0xD2D PUSH1 0x0 NOT DUP5 PUSH1 0x8 MUL PUSH2 0xD0F JUMP JUMPDEST NOT DUP1 DUP4 AND SWAP2 POP POP SWAP3 SWAP2 POP POP JUMP JUMPDEST PUSH1 0x0 PUSH2 0xD46 DUP4 DUP4 PUSH2 0xD1C JUMP JUMPDEST SWAP2 POP DUP3 PUSH1 0x2 MUL DUP3 OR SWAP1 POP SWAP3 SWAP2 POP POP JUMP JUMPDEST PUSH2 0xD5F DUP3 PUSH2 0x74F JUMP JUMPDEST PUSH8 0xFFFFFFFFFFFFFFFF DUP2 GT ISZERO PUSH2 0xD78 JUMPI PUSH2 0xD77 PUSH2 0x8C8 JUMP JUMPDEST JUMPDEST PUSH2 0xD82 DUP3 SLOAD PUSH2 0xB0D JUMP JUMPDEST PUSH2 0xD8D DUP3 DUP3 DUP6 PUSH2 0xCC9 JUMP JUMPDEST PUSH1 0x0 PUSH1 0x20 SWAP1 POP PUSH1 0x1F DUP4 GT PUSH1 0x1 DUP2 EQ PUSH2 0xDC0 JUMPI PUSH1 0x0 DUP5 ISZERO PUSH2 0xDAE JUMPI DUP3 DUP8 ADD MLOAD SWAP1 POP JUMPDEST PUSH2 0xDB8 DUP6 DUP3 PUSH2 0xD3A JUMP JUMPDEST DUP7 SSTORE POP PUSH2 0xE20 JUMP JUMPDEST PUSH1 0x1F NOT DUP5 AND PUSH2 0xDCE DUP7 PUSH2 0xBAA JUMP JUMPDEST PUSH1 0x0 JUMPDEST DUP3 DUP2 LT ISZERO PUSH2 0xDF6 JUMPI DUP5 DUP10 ADD MLOAD DUP3 SSTORE PUSH1 0x1 DUP3 ADD SWAP2 POP PUSH1 0x20 DUP6 ADD SWAP5 POP PUSH1 0x20 DUP2 ADD SWAP1 POP PUSH2 0xDD1 JUMP JUMPDEST DUP7 DUP4 LT ISZERO PUSH2 0xE13 JUMPI DUP5 DUP10 ADD MLOAD PUSH2 0xE0F PUSH1 0x1F DUP10 AND DUP3 PUSH2 0xD1C JUMP JUMPDEST DUP4 SSTORE POP JUMPDEST PUSH1 0x1 PUSH1 0x2 DUP9 MUL ADD DUP9 SSTORE POP POP POP JUMPDEST POP POP POP POP POP POP JUMP INVALID LOG2 PUSH5 0x6970667358 0x22 SLT KECCAK256 DUP16 0xF SLOAD DUP5 0xE2 PUSH1 0x6C 0xD0 PUSH4 0xB932BDF7 0xBF 0xAE EXTDELEGATECALL 0xA6 REVERT TIMESTAMP MSTORE DUP13 MSIZE 0xB9 SELFBALANCE SWAP14 MSTORE SWAP12 0xEB PUSH22 0x42F60B64736F6C634300081E00330000000000000000 "
        },
        "methodIdentifiers": {
          "Certificate(uint256)": "4e9e195b",
          "getCert(uint256)": "b449e716",
          "issue(uint256,string,string,string,string)": "d1e7be26"
        }
      }
    }
  }
}